{
  "contractName": "covidVaccineRegister",
  "abi": [
    {
      "constant": true,
      "inputs": [
        {
          "internalType": "uint256",
          "name": "",
          "type": "uint256"
        }
      ],
      "name": "vaccinationRecords",
      "outputs": [
        {
          "internalType": "string",
          "name": "name",
          "type": "string"
        },
        {
          "internalType": "string",
          "name": "surname",
          "type": "string"
        },
        {
          "internalType": "string",
          "name": "vaccinationdate",
          "type": "string"
        },
        {
          "internalType": "string",
          "name": "vaccinationname",
          "type": "string"
        },
        {
          "internalType": "string",
          "name": "vaccinationplace",
          "type": "string"
        },
        {
          "internalType": "address",
          "name": "added_by",
          "type": "address"
        }
      ],
      "payable": false,
      "stateMutability": "view",
      "type": "function"
    },
    {
      "constant": false,
      "inputs": [
        {
          "internalType": "string",
          "name": "_name",
          "type": "string"
        },
        {
          "internalType": "string",
          "name": "_surname",
          "type": "string"
        },
        {
          "internalType": "string",
          "name": "_vaccinationdate",
          "type": "string"
        },
        {
          "internalType": "string",
          "name": "_vaccinationname",
          "type": "string"
        },
        {
          "internalType": "string",
          "name": "_vaccinationplace",
          "type": "string"
        }
      ],
      "name": "createVaccinationRecord",
      "outputs": [
        {
          "internalType": "uint256",
          "name": "",
          "type": "uint256"
        }
      ],
      "payable": false,
      "stateMutability": "nonpayable",
      "type": "function"
    },
    {
      "constant": false,
      "inputs": [],
      "name": "getNumberOfVaccinations",
      "outputs": [
        {
          "internalType": "uint256",
          "name": "",
          "type": "uint256"
        }
      ],
      "payable": false,
      "stateMutability": "nonpayable",
      "type": "function"
    }
  ],
  "bytecode": "0x608060405234801561001057600080fd5b50610bce806100206000396000f3fe608060405234801561001057600080fd5b50600436106100415760003560e01c8063195812d0146100465780631ea6ddea146102275780637b05e18714610245575b600080fd5b610211600480360360a081101561005c57600080fd5b810190808035906020019064010000000081111561007957600080fd5b82018360208201111561008b57600080fd5b803590602001918460018302840111640100000000831117156100ad57600080fd5b9091929391929390803590602001906401000000008111156100ce57600080fd5b8201836020820111156100e057600080fd5b8035906020019184600183028401116401000000008311171561010257600080fd5b90919293919293908035906020019064010000000081111561012357600080fd5b82018360208201111561013557600080fd5b8035906020019184600183028401116401000000008311171561015757600080fd5b90919293919293908035906020019064010000000081111561017857600080fd5b82018360208201111561018a57600080fd5b803590602001918460018302840111640100000000831117156101ac57600080fd5b9091929391929390803590602001906401000000008111156101cd57600080fd5b8201836020820111156101df57600080fd5b8035906020019184600183028401116401000000008311171561020157600080fd5b90919293919293905050506104cf565b6040518082815260200191505060405180910390f35b61022f610787565b6040518082815260200191505060405180910390f35b6102716004803603602081101561025b57600080fd5b8101908080359060200190929190505050610793565b6040518080602001806020018060200180602001806020018773ffffffffffffffffffffffffffffffffffffffff1673ffffffffffffffffffffffffffffffffffffffff16815260200186810386528c818151815260200191508051906020019080838360005b838110156102f35780820151818401526020810190506102d8565b50505050905090810190601f1680156103205780820380516001836020036101000a031916815260200191505b5086810385528b818151815260200191508051906020019080838360005b8381101561035957808201518184015260208101905061033e565b50505050905090810190601f1680156103865780820380516001836020036101000a031916815260200191505b5086810384528a818151815260200191508051906020019080838360005b838110156103bf5780820151818401526020810190506103a4565b50505050905090810190601f1680156103ec5780820380516001836020036101000a031916815260200191505b50868103835289818151815260200191508051906020019080838360005b8381101561042557808201518184015260208101905061040a565b50505050905090810190601f1680156104525780820380516001836020036101000a031916815260200191505b50868103825288818151815260200191508051906020019080838360005b8381101561048b578082015181840152602081019050610470565b50505050905090810190601f1680156104b85780820380516001836020036101000a031916815260200191505b509b50505050505050505050505060405180910390f35b600080600160006040518060c001604052808f8f8080601f016020809104026020016040519081016040528093929190818152602001838380828437600081840152601f19601f8201169050808301925050505050505081526020018d8d8080601f016020809104026020016040519081016040528093929190818152602001838380828437600081840152601f19601f8201169050808301925050505050505081526020018b8b8080601f016020809104026020016040519081016040528093929190818152602001838380828437600081840152601f19601f82011690508083019250505050505050815260200189898080601f016020809104026020016040519081016040528093929190818152602001838380828437600081840152601f19601f82011690508083019250505050505050815260200187878080601f016020809104026020016040519081016040528093929190818152602001838380828437600081840152601f19601f8201169050808301925050505050505081526020013373ffffffffffffffffffffffffffffffffffffffff168152509080600181540180825580915050906001820390600052602060002090600602016000909192909190915060008201518160000190805190602001906106b4929190610af4565b5060208201518160010190805190602001906106d1929190610af4565b5060408201518160020190805190602001906106ee929190610af4565b50606082015181600301908051906020019061070b929190610af4565b506080820151816004019080519060200190610728929190610af4565b5060a08201518160050160006101000a81548173ffffffffffffffffffffffffffffffffffffffff021916908373ffffffffffffffffffffffffffffffffffffffff1602179055505050039050809150509a9950505050505050505050565b60008080549050905090565b600081815481106107a057fe5b9060005260206000209060060201600091509050806000018054600181600116156101000203166002900480601f01602080910402602001604051908101604052809291908181526020018280546001816001161561010002031660029004801561084c5780601f106108215761010080835404028352916020019161084c565b820191906000526020600020905b81548152906001019060200180831161082f57829003601f168201915b505050505090806001018054600181600116156101000203166002900480601f0160208091040260200160405190810160405280929190818152602001828054600181600116156101000203166002900480156108ea5780601f106108bf576101008083540402835291602001916108ea565b820191906000526020600020905b8154815290600101906020018083116108cd57829003601f168201915b505050505090806002018054600181600116156101000203166002900480601f0160208091040260200160405190810160405280929190818152602001828054600181600116156101000203166002900480156109885780601f1061095d57610100808354040283529160200191610988565b820191906000526020600020905b81548152906001019060200180831161096b57829003601f168201915b505050505090806003018054600181600116156101000203166002900480601f016020809104026020016040519081016040528092919081815260200182805460018160011615610100020316600290048015610a265780601f106109fb57610100808354040283529160200191610a26565b820191906000526020600020905b815481529060010190602001808311610a0957829003601f168201915b505050505090806004018054600181600116156101000203166002900480601f016020809104026020016040519081016040528092919081815260200182805460018160011615610100020316600290048015610ac45780601f10610a9957610100808354040283529160200191610ac4565b820191906000526020600020905b815481529060010190602001808311610aa757829003601f168201915b5050505050908060050160009054906101000a900473ffffffffffffffffffffffffffffffffffffffff16905086565b828054600181600116156101000203166002900490600052602060002090601f016020900481019282601f10610b3557805160ff1916838001178555610b63565b82800160010185558215610b63579182015b82811115610b62578251825591602001919060010190610b47565b5b509050610b709190610b74565b5090565b610b9691905b80821115610b92576000816000905550600101610b7a565b5090565b9056fea265627a7a723158204ccae6f74219ce8ca6d629c04005ef7dc3616412ce9b18f5bb1a3bc7be63357964736f6c63430005100032",
  "source": "pragma solidity ^0.5.0;\r\n\r\ncontract covidVaccineRegister {\r\n\r\n  // define the struct Day1User\r\n  struct VaccinationRecord {\r\n    string name;\r\n    string surname;\r\n    string  vaccinationdate;\r\n    string vaccinationname;\r\n    string vaccinationplace;\r\n    address added_by;\r\n  }\r\n  // define the array of users\r\n  VaccinationRecord[] public vaccinationRecords;\r\n\r\n  function createVaccinationRecord(\r\n   string calldata _name,\r\n   string calldata _surname, \r\n   string calldata _vaccinationdate, \r\n   string calldata _vaccinationname, \r\n   string calldata _vaccinationplace) external returns(uint){\r\n    // get an instance of vaccination records using the input variables and push into the array of vaccination_records, returns the id\r\n    uint id = vaccinationRecords.push(VaccinationRecord(_name, _surname, _vaccinationdate, _vaccinationname, _vaccinationplace, msg.sender)) - 1;\r\n    \r\n    // return the vaccination id\r\n    return id;\r\n  }\r\n  function getNumberOfVaccinations() public returns(uint) {\r\n    // return the length of the vaccinationRecords array\r\n    return vaccinationRecords.length;\r\n  }\r\n\r\n}",
  "sourcePath": "C:/Users/User/Desktop/Cancer Project/Covid-Vaccine-Tracker-CVT-/contracts/cvt.sol",
  "compiler": {
    "name": "solc",
    "version": "0.5.16+commit.9c3226ce.Emscripten.clang"
  },
  "schemaVersion": "3.4.0",
  "updatedAt": "2021-05-20T11:27:00.872Z",
  "devdoc": {
    "methods": {}
  },
  "userdoc": {
    "methods": {}
  }
}