{
  "contractName": "covidVaccineRegister",
  "abi": [
    {
      "constant": true,
      "inputs": [
        {
          "name": "",
          "type": "uint256"
        }
      ],
      "name": "vaccinationRecords",
      "outputs": [
        {
          "name": "name",
          "type": "string"
        },
        {
          "name": "surname",
          "type": "string"
        },
        {
          "name": "vaccinationdate",
          "type": "string"
        },
        {
          "name": "vaccinationname",
          "type": "string"
        },
        {
          "name": "vaccinationplace",
          "type": "string"
        },
        {
          "name": "added_by",
          "type": "address"
        }
      ],
      "payable": false,
      "stateMutability": "view",
      "type": "function"
    },
    {
      "constant": false,
      "inputs": [
        {
          "name": "_name",
          "type": "string"
        },
        {
          "name": "_surname",
          "type": "string"
        },
        {
          "name": "_vaccinationdate",
          "type": "string"
        },
        {
          "name": "_vaccinationname",
          "type": "string"
        },
        {
          "name": "_vaccinationplace",
          "type": "string"
        }
      ],
      "name": "createVaccinationRecord",
      "outputs": [
        {
          "name": "",
          "type": "uint256"
        }
      ],
      "payable": false,
      "stateMutability": "nonpayable",
      "type": "function"
    },
    {
      "constant": true,
      "inputs": [],
      "name": "getNumberOfVaccinations",
      "outputs": [
        {
          "name": "",
          "type": "uint256"
        }
      ],
      "payable": false,
      "stateMutability": "view",
      "type": "function"
    },
    {
      "constant": true,
      "inputs": [
        {
          "name": "index",
          "type": "uint256"
        }
      ],
      "name": "getVaccinationRecord",
      "outputs": [
        {
          "components": [
            {
              "name": "name",
              "type": "string"
            },
            {
              "name": "surname",
              "type": "string"
            },
            {
              "name": "vaccinationdate",
              "type": "string"
            },
            {
              "name": "vaccinationname",
              "type": "string"
            },
            {
              "name": "vaccinationplace",
              "type": "string"
            },
            {
              "name": "added_by",
              "type": "address"
            }
          ],
          "name": "",
          "type": "tuple"
        }
      ],
      "payable": false,
      "stateMutability": "view",
      "type": "function"
    }
  ],
  "bytecode": "0x608060405234801561001057600080fd5b506110e6806100206000396000f3fe60806040526004361061005c576000357c010000000000000000000000000000000000000000000000000000000090048063195812d0146100615780631ea6ddea1461009e5780637b05e187146100c957806386c4953d1461010b575b600080fd5b34801561006d57600080fd5b5061008860048036036100839190810190610cd8565b610148565b6040516100959190610ffc565b60405180910390f35b3480156100aa57600080fd5b506100b3610401565b6040516100c09190610ffc565b60405180910390f35b3480156100d557600080fd5b506100f060048036036100eb9190810190610ddd565b61040d565b60405161010296959493929190610f36565b60405180910390f35b34801561011757600080fd5b50610132600480360361012d9190810190610ddd565b610770565b60405161013f9190610fda565b60405180910390f35b6000806001600060c0604051908101604052808f8f8080601f016020809104026020016040519081016040528093929190818152602001838380828437600081840152601f19601f8201169050808301925050505050505081526020018d8d8080601f016020809104026020016040519081016040528093929190818152602001838380828437600081840152601f19601f8201169050808301925050505050505081526020018b8b8080601f016020809104026020016040519081016040528093929190818152602001838380828437600081840152601f19601f82011690508083019250505050505050815260200189898080601f016020809104026020016040519081016040528093929190818152602001838380828437600081840152601f19601f82011690508083019250505050505050815260200187878080601f016020809104026020016040519081016040528093929190818152602001838380828437600081840152601f19601f8201169050808301925050505050505081526020013373ffffffffffffffffffffffffffffffffffffffff1681525090806001815401808255809150509060018203906000526020600020906006020160009091929091909150600082015181600001908051906020019061032e929190610b86565b50602082015181600101908051906020019061034b929190610b86565b506040820151816002019080519060200190610368929190610b86565b506060820151816003019080519060200190610385929190610b86565b5060808201518160040190805190602001906103a2929190610b86565b5060a08201518160050160006101000a81548173ffffffffffffffffffffffffffffffffffffffff021916908373ffffffffffffffffffffffffffffffffffffffff1602179055505050039050809150509a9950505050505050505050565b60008080549050905090565b60008181548110151561041c57fe5b9060005260206000209060060201600091509050806000018054600181600116156101000203166002900480601f0160208091040260200160405190810160405280929190818152602001828054600181600116156101000203166002900480156104c85780601f1061049d576101008083540402835291602001916104c8565b820191906000526020600020905b8154815290600101906020018083116104ab57829003601f168201915b505050505090806001018054600181600116156101000203166002900480601f0160208091040260200160405190810160405280929190818152602001828054600181600116156101000203166002900480156105665780601f1061053b57610100808354040283529160200191610566565b820191906000526020600020905b81548152906001019060200180831161054957829003601f168201915b505050505090806002018054600181600116156101000203166002900480601f0160208091040260200160405190810160405280929190818152602001828054600181600116156101000203166002900480156106045780601f106105d957610100808354040283529160200191610604565b820191906000526020600020905b8154815290600101906020018083116105e757829003601f168201915b505050505090806003018054600181600116156101000203166002900480601f0160208091040260200160405190810160405280929190818152602001828054600181600116156101000203166002900480156106a25780601f10610677576101008083540402835291602001916106a2565b820191906000526020600020905b81548152906001019060200180831161068557829003601f168201915b505050505090806004018054600181600116156101000203166002900480601f0160208091040260200160405190810160405280929190818152602001828054600181600116156101000203166002900480156107405780601f1061071557610100808354040283529160200191610740565b820191906000526020600020905b81548152906001019060200180831161072357829003601f168201915b5050505050908060050160009054906101000a900473ffffffffffffffffffffffffffffffffffffffff16905086565b610778610c06565b60008080549050905060008311801561079057508083105b15610b46576000838154811015156107a457fe5b906000526020600020906006020160c06040519081016040529081600082018054600181600116156101000203166002900480601f0160208091040260200160405190810160405280929190818152602001828054600181600116156101000203166002900480156108575780601f1061082c57610100808354040283529160200191610857565b820191906000526020600020905b81548152906001019060200180831161083a57829003601f168201915b50505050508152602001600182018054600181600116156101000203166002900480601f0160208091040260200160405190810160405280929190818152602001828054600181600116156101000203166002900480156108f95780601f106108ce576101008083540402835291602001916108f9565b820191906000526020600020905b8154815290600101906020018083116108dc57829003601f168201915b50505050508152602001600282018054600181600116156101000203166002900480601f01602080910402602001604051908101604052809291908181526020018280546001816001161561010002031660029004801561099b5780601f106109705761010080835404028352916020019161099b565b820191906000526020600020905b81548152906001019060200180831161097e57829003601f168201915b50505050508152602001600382018054600181600116156101000203166002900480601f016020809104026020016040519081016040528092919081815260200182805460018160011615610100020316600290048015610a3d5780601f10610a1257610100808354040283529160200191610a3d565b820191906000526020600020905b815481529060010190602001808311610a2057829003601f168201915b50505050508152602001600482018054600181600116156101000203166002900480601f016020809104026020016040519081016040528092919081815260200182805460018160011615610100020316600290048015610adf5780601f10610ab457610100808354040283529160200191610adf565b820191906000526020600020905b815481529060010190602001808311610ac257829003601f168201915b505050505081526020016005820160009054906101000a900473ffffffffffffffffffffffffffffffffffffffff1673ffffffffffffffffffffffffffffffffffffffff1673ffffffffffffffffffffffffffffffffffffffff1681525050915050610b81565b6040517f08c379a0000000000000000000000000000000000000000000000000000000008152600401610b7890610fba565b60405180910390fd5b919050565b828054600181600116156101000203166002900490600052602060002090601f016020900481019282601f10610bc757805160ff1916838001178555610bf5565b82800160010185558215610bf5579182015b82811115610bf4578251825591602001919060010190610bd9565b5b509050610c029190610c53565b5090565b60c0604051908101604052806060815260200160608152602001606081526020016060815260200160608152602001600073ffffffffffffffffffffffffffffffffffffffff1681525090565b610c7591905b80821115610c71576000816000905550600101610c59565b5090565b90565b60008083601f8401121515610c8c57600080fd5b8235905067ffffffffffffffff811115610ca557600080fd5b602083019150836001820283011115610cbd57600080fd5b9250929050565b6000610cd0823561105e565b905092915050565b60008060008060008060008060008060a08b8d031215610cf757600080fd5b60008b013567ffffffffffffffff811115610d1157600080fd5b610d1d8d828e01610c78565b9a509a505060208b013567ffffffffffffffff811115610d3c57600080fd5b610d488d828e01610c78565b985098505060408b013567ffffffffffffffff811115610d6757600080fd5b610d738d828e01610c78565b965096505060608b013567ffffffffffffffff811115610d9257600080fd5b610d9e8d828e01610c78565b945094505060808b013567ffffffffffffffff811115610dbd57600080fd5b610dc98d828e01610c78565b92509250509295989b9194979a5092959850565b600060208284031215610def57600080fd5b6000610dfd84828501610cc4565b91505092915050565b610e0f81611022565b82525050565b6000610e2082611017565b808452610e34816020860160208601611068565b610e3d8161109b565b602085010191505092915050565b6000600d82527f496e76616c696420696e646578000000000000000000000000000000000000006020830152604082019050919050565b600060c0830160008301518482036000860152610e9f8282610e15565b91505060208301518482036020860152610eb98282610e15565b91505060408301518482036040860152610ed38282610e15565b91505060608301518482036060860152610eed8282610e15565b91505060808301518482036080860152610f078282610e15565b91505060a0830151610f1c60a0860182610e06565b508091505092915050565b610f3081611054565b82525050565b600060c0820190508181036000830152610f508189610e15565b90508181036020830152610f648188610e15565b90508181036040830152610f788187610e15565b90508181036060830152610f8c8186610e15565b90508181036080830152610fa08185610e15565b9050610faf60a0830184610e06565b979650505050505050565b60006020820190508181036000830152610fd381610e4b565b9050919050565b60006020820190508181036000830152610ff48184610e82565b905092915050565b60006020820190506110116000830184610f27565b92915050565b600081519050919050565b600061102d82611034565b9050919050565b600073ffffffffffffffffffffffffffffffffffffffff82169050919050565b6000819050919050565b6000819050919050565b60005b8381101561108657808201518184015260208101905061106b565b83811115611095576000848401525b50505050565b6000601f19601f830116905091905056fea265627a7a7230582046e37fce8eed007cb214fcfa9499b65256f9968ca52cd30d5146dd43327f124a6c6578706572696d656e74616cf50037",
  "source": "pragma solidity ^0.5.0;\r\npragma experimental ABIEncoderV2;\r\n\r\ncontract covidVaccineRegister {\r\n\r\n  // define the struct Day1User\r\n  struct VaccinationRecord {\r\n    string name;\r\n    string surname;\r\n    string  vaccinationdate;\r\n    string vaccinationname;\r\n    string vaccinationplace;\r\n    address added_by;\r\n  }\r\n  // define the array of users\r\n  VaccinationRecord[] public vaccinationRecords;\r\n\r\n  function createVaccinationRecord(\r\n   string calldata _name,\r\n   string calldata _surname, \r\n   string calldata _vaccinationdate, \r\n   string calldata _vaccinationname, \r\n   string calldata _vaccinationplace) external  returns(uint){\r\n    // get an instance of vaccination records using the input variables and push into the array of vaccination_records, returns the id\r\n   uint id = vaccinationRecords.push(VaccinationRecord(_name, _surname, _vaccinationdate, _vaccinationname, _vaccinationplace, msg.sender)) - 1;\r\n    \r\n    // return the vaccination id\r\n    return id;\r\n  }\r\n\r\n  function getNumberOfVaccinations() external view returns(uint) {\r\n    // return the length of the vaccinationRecords array\r\n    return vaccinationRecords.length;\r\n  }\r\n   function getVaccinationRecord(uint index) external view returns(VaccinationRecord memory) {\r\n    // return a vaccination record from an array\r\n    \r\n    uint len = vaccinationRecords.length;\r\n     if(index>0 && index<len)\r\n     {\r\n         return vaccinationRecords[index];\r\n     }\r\n     revert(\"Invalid index\");\r\n  }\r\n\r\n\r\n\r\n}",
  "sourcePath": "C:/Users/User/Desktop/Cancer Project/Covid-Vaccine-Tracker-CVT-/contracts/cvt.sol",
  "compiler": {
    "name": "solc",
    "version": "0.5.1+commit.c8a2cb62.Emscripten.clang"
  },
  "schemaVersion": "3.4.0",
  "updatedAt": "2021-05-21T08:33:30.395Z",
  "devdoc": {
    "methods": {}
  },
  "userdoc": {
    "methods": {}
  }
}