{
  "contractName": "covidVaccineRegister",
  "abi": [
    {
      "constant": true,
      "inputs": [
        {
          "internalType": "uint256",
          "name": "",
          "type": "uint256"
        }
      ],
      "name": "vaccinationRecords",
      "outputs": [
        {
          "internalType": "string",
          "name": "name",
          "type": "string"
        },
        {
          "internalType": "string",
          "name": "surname",
          "type": "string"
        },
        {
          "internalType": "string",
          "name": "vaccinationdate",
          "type": "string"
        },
        {
          "internalType": "string",
          "name": "vaccinationname",
          "type": "string"
        },
        {
          "internalType": "string",
          "name": "vaccinationplace",
          "type": "string"
        },
        {
          "internalType": "address",
          "name": "added_by",
          "type": "address"
        }
      ],
      "payable": false,
      "stateMutability": "view",
      "type": "function"
    },
    {
      "constant": false,
      "inputs": [
        {
          "internalType": "string",
          "name": "_name",
          "type": "string"
        },
        {
          "internalType": "string",
          "name": "_surname",
          "type": "string"
        },
        {
          "internalType": "string",
          "name": "_vaccinationdate",
          "type": "string"
        },
        {
          "internalType": "string",
          "name": "_vaccinationname",
          "type": "string"
        },
        {
          "internalType": "string",
          "name": "_vaccinationplace",
          "type": "string"
        }
      ],
      "name": "createVaccinationRecord",
      "outputs": [
        {
          "internalType": "uint256",
          "name": "",
          "type": "uint256"
        }
      ],
      "payable": false,
      "stateMutability": "nonpayable",
      "type": "function"
    },
    {
      "constant": true,
      "inputs": [],
      "name": "getNumberOfVaccinations",
      "outputs": [
        {
          "internalType": "uint256",
          "name": "",
          "type": "uint256"
        }
      ],
      "payable": false,
      "stateMutability": "view",
      "type": "function"
    },
    {
      "constant": true,
      "inputs": [
        {
          "internalType": "uint256",
          "name": "index",
          "type": "uint256"
        }
      ],
      "name": "getVaccinationRecord",
      "outputs": [
        {
          "components": [
            {
              "internalType": "string",
              "name": "name",
              "type": "string"
            },
            {
              "internalType": "string",
              "name": "surname",
              "type": "string"
            },
            {
              "internalType": "string",
              "name": "vaccinationdate",
              "type": "string"
            },
            {
              "internalType": "string",
              "name": "vaccinationname",
              "type": "string"
            },
            {
              "internalType": "string",
              "name": "vaccinationplace",
              "type": "string"
            },
            {
              "internalType": "address",
              "name": "added_by",
              "type": "address"
            }
          ],
          "internalType": "struct covidVaccineRegister.VaccinationRecord",
          "name": "",
          "type": "tuple"
        }
      ],
      "payable": false,
      "stateMutability": "view",
      "type": "function"
    }
  ],
  "bytecode": "0x608060405234801561001057600080fd5b50611068806100206000396000f3fe608060405234801561001057600080fd5b506004361061004c5760003560e01c8063195812d0146100515780631ea6ddea146100815780637b05e1871461009f57806386c4953d146100d4575b600080fd5b61006b60048036036100669190810190610c2e565b610104565b6040516100789190610f46565b60405180910390f35b6100896103bc565b6040516100969190610f46565b60405180910390f35b6100b960048036036100b49190810190610d33565b6103c8565b6040516100cb96959493929190610ea0565b60405180910390f35b6100ee60048036036100e99190810190610d33565b610729565b6040516100fb9190610f24565b60405180910390f35b600080600160006040518060c001604052808f8f8080601f016020809104026020016040519081016040528093929190818152602001838380828437600081840152601f19601f8201169050808301925050505050505081526020018d8d8080601f016020809104026020016040519081016040528093929190818152602001838380828437600081840152601f19601f8201169050808301925050505050505081526020018b8b8080601f016020809104026020016040519081016040528093929190818152602001838380828437600081840152601f19601f82011690508083019250505050505050815260200189898080601f016020809104026020016040519081016040528093929190818152602001838380828437600081840152601f19601f82011690508083019250505050505050815260200187878080601f016020809104026020016040519081016040528093929190818152602001838380828437600081840152601f19601f8201169050808301925050505050505081526020013373ffffffffffffffffffffffffffffffffffffffff168152509080600181540180825580915050906001820390600052602060002090600602016000909192909190915060008201518160000190805190602001906102e9929190610ade565b506020820151816001019080519060200190610306929190610ade565b506040820151816002019080519060200190610323929190610ade565b506060820151816003019080519060200190610340929190610ade565b50608082015181600401908051906020019061035d929190610ade565b5060a08201518160050160006101000a81548173ffffffffffffffffffffffffffffffffffffffff021916908373ffffffffffffffffffffffffffffffffffffffff1602179055505050039050809150509a9950505050505050505050565b60008080549050905090565b600081815481106103d557fe5b9060005260206000209060060201600091509050806000018054600181600116156101000203166002900480601f0160208091040260200160405190810160405280929190818152602001828054600181600116156101000203166002900480156104815780601f1061045657610100808354040283529160200191610481565b820191906000526020600020905b81548152906001019060200180831161046457829003601f168201915b505050505090806001018054600181600116156101000203166002900480601f01602080910402602001604051908101604052809291908181526020018280546001816001161561010002031660029004801561051f5780601f106104f45761010080835404028352916020019161051f565b820191906000526020600020905b81548152906001019060200180831161050257829003601f168201915b505050505090806002018054600181600116156101000203166002900480601f0160208091040260200160405190810160405280929190818152602001828054600181600116156101000203166002900480156105bd5780601f10610592576101008083540402835291602001916105bd565b820191906000526020600020905b8154815290600101906020018083116105a057829003601f168201915b505050505090806003018054600181600116156101000203166002900480601f01602080910402602001604051908101604052809291908181526020018280546001816001161561010002031660029004801561065b5780601f106106305761010080835404028352916020019161065b565b820191906000526020600020905b81548152906001019060200180831161063e57829003601f168201915b505050505090806004018054600181600116156101000203166002900480601f0160208091040260200160405190810160405280929190818152602001828054600181600116156101000203166002900480156106f95780601f106106ce576101008083540402835291602001916106f9565b820191906000526020600020905b8154815290600101906020018083116106dc57829003601f168201915b5050505050908060050160009054906101000a900473ffffffffffffffffffffffffffffffffffffffff16905086565b610731610b5e565b6000828154811061073e57fe5b90600052602060002090600602016040518060c0016040529081600082018054600181600116156101000203166002900480601f0160208091040260200160405190810160405280929190818152602001828054600181600116156101000203166002900480156107f05780601f106107c5576101008083540402835291602001916107f0565b820191906000526020600020905b8154815290600101906020018083116107d357829003601f168201915b50505050508152602001600182018054600181600116156101000203166002900480601f0160208091040260200160405190810160405280929190818152602001828054600181600116156101000203166002900480156108925780601f1061086757610100808354040283529160200191610892565b820191906000526020600020905b81548152906001019060200180831161087557829003601f168201915b50505050508152602001600282018054600181600116156101000203166002900480601f0160208091040260200160405190810160405280929190818152602001828054600181600116156101000203166002900480156109345780601f1061090957610100808354040283529160200191610934565b820191906000526020600020905b81548152906001019060200180831161091757829003601f168201915b50505050508152602001600382018054600181600116156101000203166002900480601f0160208091040260200160405190810160405280929190818152602001828054600181600116156101000203166002900480156109d65780601f106109ab576101008083540402835291602001916109d6565b820191906000526020600020905b8154815290600101906020018083116109b957829003601f168201915b50505050508152602001600482018054600181600116156101000203166002900480601f016020809104026020016040519081016040528092919081815260200182805460018160011615610100020316600290048015610a785780601f10610a4d57610100808354040283529160200191610a78565b820191906000526020600020905b815481529060010190602001808311610a5b57829003601f168201915b505050505081526020016005820160009054906101000a900473ffffffffffffffffffffffffffffffffffffffff1673ffffffffffffffffffffffffffffffffffffffff1673ffffffffffffffffffffffffffffffffffffffff16815250509050919050565b828054600181600116156101000203166002900490600052602060002090601f016020900481019282601f10610b1f57805160ff1916838001178555610b4d565b82800160010185558215610b4d579182015b82811115610b4c578251825591602001919060010190610b31565b5b509050610b5a9190610baa565b5090565b6040518060c001604052806060815260200160608152602001606081526020016060815260200160608152602001600073ffffffffffffffffffffffffffffffffffffffff1681525090565b610bcc91905b80821115610bc8576000816000905550600101610bb0565b5090565b90565b60008083601f840112610be157600080fd5b8235905067ffffffffffffffff811115610bfa57600080fd5b602083019150836001820283011115610c1257600080fd5b9250929050565b600081359050610c288161100e565b92915050565b60008060008060008060008060008060a08b8d031215610c4d57600080fd5b60008b013567ffffffffffffffff811115610c6757600080fd5b610c738d828e01610bcf565b9a509a505060208b013567ffffffffffffffff811115610c9257600080fd5b610c9e8d828e01610bcf565b985098505060408b013567ffffffffffffffff811115610cbd57600080fd5b610cc98d828e01610bcf565b965096505060608b013567ffffffffffffffff811115610ce857600080fd5b610cf48d828e01610bcf565b945094505060808b013567ffffffffffffffff811115610d1357600080fd5b610d1f8d828e01610bcf565b92509250509295989b9194979a5092959850565b600060208284031215610d4557600080fd5b6000610d5384828501610c19565b91505092915050565b610d6581610f8e565b82525050565b610d7481610f8e565b82525050565b6000610d8582610f61565b610d8f8185610f6c565b9350610d9f818560208601610fca565b610da881610ffd565b840191505092915050565b6000610dbe82610f61565b610dc88185610f7d565b9350610dd8818560208601610fca565b610de181610ffd565b840191505092915050565b600060c0830160008301518482036000860152610e098282610d7a565b91505060208301518482036020860152610e238282610d7a565b91505060408301518482036040860152610e3d8282610d7a565b91505060608301518482036060860152610e578282610d7a565b91505060808301518482036080860152610e718282610d7a565b91505060a0830151610e8660a0860182610d5c565b508091505092915050565b610e9a81610fc0565b82525050565b600060c0820190508181036000830152610eba8189610db3565b90508181036020830152610ece8188610db3565b90508181036040830152610ee28187610db3565b90508181036060830152610ef68186610db3565b90508181036080830152610f0a8185610db3565b9050610f1960a0830184610d6b565b979650505050505050565b60006020820190508181036000830152610f3e8184610dec565b905092915050565b6000602082019050610f5b6000830184610e91565b92915050565b600081519050919050565b600082825260208201905092915050565b600082825260208201905092915050565b6000610f9982610fa0565b9050919050565b600073ffffffffffffffffffffffffffffffffffffffff82169050919050565b6000819050919050565b60005b83811015610fe8578082015181840152602081019050610fcd565b83811115610ff7576000848401525b50505050565b6000601f19601f8301169050919050565b61101781610fc0565b811461102257600080fd5b5056fea365627a7a72315820678bd4969ed1d07179add892854d494b18fa5a78169158a7143d30444e43bef36c6578706572696d656e74616cf564736f6c63430005100040",
  "source": "pragma solidity ^0.5.0;\r\npragma experimental ABIEncoderV2;\r\n\r\ncontract covidVaccineRegister {\r\n\r\n  // define the struct Day1User\r\n  struct VaccinationRecord {\r\n    string name;\r\n    string surname;\r\n    string  vaccinationdate;\r\n    string vaccinationname;\r\n    string vaccinationplace;\r\n    address added_by;\r\n  }\r\n  // define the array of users\r\n  VaccinationRecord[] public vaccinationRecords;\r\n\r\n  function createVaccinationRecord(\r\n   string calldata _name,\r\n   string calldata _surname, \r\n   string calldata _vaccinationdate, \r\n   string calldata _vaccinationname, \r\n   string calldata _vaccinationplace) external  returns(uint){\r\n    // get an instance of vaccination records using the input variables and push into the array of vaccination_records, returns the id\r\n   uint id = vaccinationRecords.push(VaccinationRecord(_name, _surname, _vaccinationdate, _vaccinationname, _vaccinationplace, msg.sender)) - 1;\r\n    \r\n    // return the vaccination id\r\n    return id;\r\n  }\r\n\r\n  function getNumberOfVaccinations() external view returns(uint) {\r\n    // return the length of the vaccinationRecords array\r\n    return vaccinationRecords.length;\r\n  }\r\n   function getVaccinationRecord(uint index) external view returns(VaccinationRecord memory) {\r\n    // return a vaccination record from an array\r\n     return vaccinationRecords[index];\r\n  }\r\n\r\n\r\n\r\n}",
  "sourcePath": "C:/Users/User/Desktop/Cancer Project/Covid-Vaccine-Tracker-CVT-/contracts/cvt.sol",
  "compiler": {
    "name": "solc",
    "version": "0.5.16+commit.9c3226ce.Emscripten.clang"
  },
  "schemaVersion": "3.4.0",
  "updatedAt": "2021-05-21T00:48:29.134Z",
  "networkType": "ethereum",
  "devdoc": {
    "methods": {}
  },
  "userdoc": {
    "methods": {}
  }
}